{
  "contractName": "PasswordManager",
  "abi": [
    {
      "inputs": [],
      "payable": false,
      "stateMutability": "nonpayable",
      "type": "constructor"
    },
    {
      "anonymous": false,
      "inputs": [
        {
          "indexed": false,
          "internalType": "address",
          "name": "user",
          "type": "address"
        }
      ],
      "name": "LogPasswordChanged",
      "type": "event"
    },
    {
      "anonymous": false,
      "inputs": [
        {
          "indexed": false,
          "internalType": "address",
          "name": "user",
          "type": "address"
        }
      ],
      "name": "LogServiceAdded",
      "type": "event"
    },
    {
      "anonymous": false,
      "inputs": [
        {
          "indexed": false,
          "internalType": "address",
          "name": "user",
          "type": "address"
        }
      ],
      "name": "LogServiceRemoved",
      "type": "event"
    },
    {
      "constant": true,
      "inputs": [],
      "name": "owner",
      "outputs": [
        {
          "internalType": "address",
          "name": "",
          "type": "address"
        }
      ],
      "payable": false,
      "stateMutability": "view",
      "type": "function"
    },
    {
      "constant": false,
      "inputs": [
        {
          "internalType": "string",
          "name": "_service",
          "type": "string"
        },
        {
          "internalType": "string",
          "name": "_password",
          "type": "string"
        }
      ],
      "name": "addService",
      "outputs": [
        {
          "internalType": "bool",
          "name": "",
          "type": "bool"
        }
      ],
      "payable": false,
      "stateMutability": "nonpayable",
      "type": "function"
    },
    {
      "constant": false,
      "inputs": [
        {
          "internalType": "string",
          "name": "_service",
          "type": "string"
        },
        {
          "internalType": "string",
          "name": "_newPassword",
          "type": "string"
        }
      ],
      "name": "changePassword",
      "outputs": [
        {
          "internalType": "bool",
          "name": "",
          "type": "bool"
        }
      ],
      "payable": false,
      "stateMutability": "nonpayable",
      "type": "function"
    },
    {
      "constant": false,
      "inputs": [
        {
          "internalType": "string",
          "name": "_service",
          "type": "string"
        }
      ],
      "name": "removeService",
      "outputs": [
        {
          "internalType": "bool",
          "name": "",
          "type": "bool"
        }
      ],
      "payable": false,
      "stateMutability": "nonpayable",
      "type": "function"
    },
    {
      "constant": true,
      "inputs": [],
      "name": "returnServices",
      "outputs": [
        {
          "internalType": "string[]",
          "name": "",
          "type": "string[]"
        }
      ],
      "payable": false,
      "stateMutability": "view",
      "type": "function"
    },
    {
      "constant": true,
      "inputs": [
        {
          "internalType": "string",
          "name": "_service",
          "type": "string"
        }
      ],
      "name": "retrievePassword",
      "outputs": [
        {
          "internalType": "string",
          "name": "",
          "type": "string"
        }
      ],
      "payable": false,
      "stateMutability": "view",
      "type": "function"
    }
  ],
  "bytecode": "0x608060405234801561001057600080fd5b50336000806101000a81548173ffffffffffffffffffffffffffffffffffffffff021916908373ffffffffffffffffffffffffffffffffffffffff16021790555061103b806100606000396000f3fe608060405234801561001057600080fd5b50600436106100625760003560e01c80634881e6471461006757806384a83662146100975780638b0cc5d1146100c75780638da5cb5b146100f7578063f51acaea14610115578063fb9b799514610145575b600080fd5b610081600480360361007c9190810190610b4a565b610163565b60405161008e9190610e1a565b60405180910390f35b6100b160048036036100ac9190810190610b8b565b610263565b6040516100be9190610dff565b60405180910390f35b6100e160048036036100dc9190810190610b8b565b610319565b6040516100ee9190610dff565b60405180910390f35b6100ff6104f6565b60405161010c9190610da7565b60405180910390f35b61012f600480360361012a9190810190610b4a565b61051b565b60405161013c9190610dff565b60405180910390f35b61014d610801565b60405161015a9190610ddd565b60405180910390f35b6060600160003373ffffffffffffffffffffffffffffffffffffffff1673ffffffffffffffffffffffffffffffffffffffff168152602001908152602001600020600101826040516101b59190610d90565b90815260200160405180910390208054600181600116156101000203166002900480601f0160208091040260200160405190810160405280929190818152602001828054600181600116156101000203166002900480156102575780601f1061022c57610100808354040283529160200191610257565b820191906000526020600020905b81548152906001019060200180831161023a57829003601f168201915b50505050509050919050565b600081600160003373ffffffffffffffffffffffffffffffffffffffff1673ffffffffffffffffffffffffffffffffffffffff168152602001908152602001600020600101846040516102b69190610d90565b908152602001604051809103902090805190602001906102d792919061092a565b507fd95d9019783d5413cc8c6c2a7c18cd1bc6712edb666b8aed469b885dfdf8842a336040516103079190610dc2565b60405180910390a16001905092915050565b6000600160003373ffffffffffffffffffffffffffffffffffffffff1673ffffffffffffffffffffffffffffffffffffffff16815260200190815260200160002060000180549050600160003373ffffffffffffffffffffffffffffffffffffffff1673ffffffffffffffffffffffffffffffffffffffff168152602001908152602001600020600201846040516103b19190610d90565b908152602001604051809103902081905550600160003373ffffffffffffffffffffffffffffffffffffffff1673ffffffffffffffffffffffffffffffffffffffff16815260200190815260200160002060000183908060018154018082558091505090600182039060005260206000200160009091929091909150908051906020019061044092919061092a565b505081600160003373ffffffffffffffffffffffffffffffffffffffff1673ffffffffffffffffffffffffffffffffffffffff168152602001908152602001600020600101846040516104939190610d90565b908152602001604051809103902090805190602001906104b492919061092a565b507f8f48ddf18a6c960936a0bad125246c9a00ecfcef0aa54f2dfa32bb5883412d99336040516104e49190610dc2565b60405180910390a16001905092915050565b6000809054906101000a900473ffffffffffffffffffffffffffffffffffffffff1681565b600080600160003373ffffffffffffffffffffffffffffffffffffffff1673ffffffffffffffffffffffffffffffffffffffff16815260200190815260200160002060000180549050116105a4576040517f08c379a000000000000000000000000000000000000000000000000000000000815260040161059b90610e3c565b60405180910390fd5b6000600160003373ffffffffffffffffffffffffffffffffffffffff1673ffffffffffffffffffffffffffffffffffffffff168152602001908152602001600020600201836040516105f69190610d90565b908152602001604051809103902054905060018060003373ffffffffffffffffffffffffffffffffffffffff1673ffffffffffffffffffffffffffffffffffffffff16815260200190815260200160002060000180549050111561076a57600160003373ffffffffffffffffffffffffffffffffffffffff1673ffffffffffffffffffffffffffffffffffffffff16815260200190815260200160002060000160018060003373ffffffffffffffffffffffffffffffffffffffff1673ffffffffffffffffffffffffffffffffffffffff1681526020019081526020016000206000018054905003815481106106e857fe5b90600052602060002001600160003373ffffffffffffffffffffffffffffffffffffffff1673ffffffffffffffffffffffffffffffffffffffff168152602001908152602001600020600001828154811061073f57fe5b9060005260206000200190805460018160011615610100020316600290046107689291906109aa565b505b600160003373ffffffffffffffffffffffffffffffffffffffff1673ffffffffffffffffffffffffffffffffffffffff1681526020019081526020016000206000018054809190600190036107bf9190610a31565b507f53e1b957e8ae807da30ba86e9583d845a49006b7daaf10e7a2ff6692b63cd264336040516107ef9190610dc2565b60405180910390a16001915050919050565b6060600160003373ffffffffffffffffffffffffffffffffffffffff1673ffffffffffffffffffffffffffffffffffffffff168152602001908152602001600020600001805480602002602001604051908101604052809291908181526020016000905b82821015610921578382906000526020600020018054600181600116156101000203166002900480601f01602080910402602001604051908101604052809291908181526020018280546001816001161561010002031660029004801561090d5780601f106108e25761010080835404028352916020019161090d565b820191906000526020600020905b8154815290600101906020018083116108f057829003601f168201915b505050505081526020019060010190610865565b50505050905090565b828054600181600116156101000203166002900490600052602060002090601f016020900481019282601f1061096b57805160ff1916838001178555610999565b82800160010185558215610999579182015b8281111561099857825182559160200191906001019061097d565b5b5090506109a69190610a5d565b5090565b828054600181600116156101000203166002900490600052602060002090601f016020900481019282601f106109e35780548555610a20565b82800160010185558215610a2057600052602060002091601f016020900482015b82811115610a1f578254825591600101919060010190610a04565b5b509050610a2d9190610a5d565b5090565b815481835581811115610a5857818360005260206000209182019101610a579190610a82565b5b505050565b610a7f91905b80821115610a7b576000816000905550600101610a63565b5090565b90565b610aab91905b80821115610aa75760008181610a9e9190610aae565b50600101610a88565b5090565b90565b50805460018160011615610100020316600290046000825580601f10610ad45750610af3565b601f016020900490600052602060002090810190610af29190610a5d565b5b50565b600082601f830112610b0757600080fd5b8135610b1a610b1582610e89565b610e5c565b91508082526020830160208301858383011115610b3657600080fd5b610b41838284610fa5565b50505092915050565b600060208284031215610b5c57600080fd5b600082013567ffffffffffffffff811115610b7657600080fd5b610b8284828501610af6565b91505092915050565b60008060408385031215610b9e57600080fd5b600083013567ffffffffffffffff811115610bb857600080fd5b610bc485828601610af6565b925050602083013567ffffffffffffffff811115610be157600080fd5b610bed85828601610af6565b9150509250929050565b6000610c038383610d17565b905092915050565b610c1481610f6f565b82525050565b610c2381610f31565b82525050565b6000610c3482610ec5565b610c3e8185610ef3565b935083602082028501610c5085610eb5565b8060005b85811015610c8c5784840389528151610c6d8582610bf7565b9450610c7883610ee6565b925060208a01995050600181019050610c54565b50829750879550505050505092915050565b610ca781610f43565b82525050565b6000610cb882610edb565b610cc28185610f15565b9350610cd2818560208601610fb4565b610cdb81610fe7565b840191505092915050565b6000610cf182610edb565b610cfb8185610f26565b9350610d0b818560208601610fb4565b80840191505092915050565b6000610d2282610ed0565b610d2c8185610f04565b9350610d3c818560208601610fb4565b610d4581610fe7565b840191505092915050565b6000610d5d600e83610f15565b91507f417272617920697320656d7074790000000000000000000000000000000000006000830152602082019050919050565b6000610d9c8284610ce6565b915081905092915050565b6000602082019050610dbc6000830184610c1a565b92915050565b6000602082019050610dd76000830184610c0b565b92915050565b60006020820190508181036000830152610df78184610c29565b905092915050565b6000602082019050610e146000830184610c9e565b92915050565b60006020820190508181036000830152610e348184610cad565b905092915050565b60006020820190508181036000830152610e5581610d50565b9050919050565b6000604051905081810181811067ffffffffffffffff82111715610e7f57600080fd5b8060405250919050565b600067ffffffffffffffff821115610ea057600080fd5b601f19601f8301169050602081019050919050565b6000819050602082019050919050565b600081519050919050565b600081519050919050565b600081519050919050565b6000602082019050919050565b600082825260208201905092915050565b600082825260208201905092915050565b600082825260208201905092915050565b600081905092915050565b6000610f3c82610f4f565b9050919050565b60008115159050919050565b600073ffffffffffffffffffffffffffffffffffffffff82169050919050565b6000610f7a82610f81565b9050919050565b6000610f8c82610f93565b9050919050565b6000610f9e82610f4f565b9050919050565b82818337600083830152505050565b60005b83811015610fd2578082015181840152602081019050610fb7565b83811115610fe1576000848401525b50505050565b6000601f19601f830116905091905056fea365627a7a723158206df2244c09738ed99f45b8866cc8207bcff740e8912736960b43db554bd14f696c6578706572696d656e74616cf564736f6c63430005100040",
  "source": "pragma solidity >=0.4.21 <0.7.0;\npragma experimental ABIEncoderV2;\n\ncontract PasswordManager {\n\n    // Owner of the contract\n    address public owner;\n\n    // Map users by address to their object\n    mapping(address => User) internal users;\n\n    // Create a struct to represent a user and their passwords\n    struct User {\n        string[] serviceArray;\n        mapping(string => string) passwords;\n        mapping(string => uint) serviceToIndex;\n    }\n\n    // Events\n    event LogServiceAdded(address user);\n    event LogPasswordChanged(address user);\n    event LogServiceRemoved(address user);\n\n    // Functions\n    constructor() public {\n        owner = msg.sender;\n    }\n\n    /* Add a service with a respective password and store it in the User struct*/\n    function addService(string memory _service, string memory _password) public returns(bool) {\n        users[msg.sender].serviceToIndex[_service] = users[msg.sender].serviceArray.length;\n        users[msg.sender].serviceArray.push(_service);\n        users[msg.sender].passwords[_service] = _password;\n        emit LogServiceAdded(msg.sender);\n        return true;\n    }\n\n    /* Change password for an existing service by supplying a new password */\n    function changePassword(string memory _service, string memory _newPassword) public returns(bool) {\n        users[msg.sender].passwords[_service] = _newPassword;\n        emit LogPasswordChanged(msg.sender);\n        return true;\n    }\n\n    /* Remove a service from the list of the sender's services */\n    function removeService(string memory _service) public returns(bool) {\n        require(users[msg.sender].serviceArray.length > 0, \"Array is empty\");\n        uint index = users[msg.sender].serviceToIndex[_service];\n        if(users[msg.sender].serviceArray.length > 1) {\n            users[msg.sender].serviceArray[index] =  users[msg.sender].serviceArray[users[msg.sender].serviceArray.length - 1];\n        }\n        users[msg.sender].serviceArray.length--;\n        emit LogServiceRemoved(msg.sender);\n        return true;\n    }\n\n    /* Return all services based on the current sender */\n    function returnServices() public view returns(string[] memory) {\n        return users[msg.sender].serviceArray;\n    }\n\n    /* Retrieve password for the respective service provided */\n    function retrievePassword(string memory _service) public view returns(string memory) {\n        return users[msg.sender].passwords[_service];\n    }\n\n}\n",
  "sourcePath": "/Users/ianbrighton/Documents/Blockchain/github-projects/decentralized-password-manager/blockchain/contracts/PasswordManager.sol",
  "compiler": {
    "name": "solc",
    "version": "0.5.16+commit.9c3226ce.Emscripten.clang"
  },
  "schemaVersion": "3.0.23",
  "updatedAt": "2020-08-26T19:04:51.596Z",
  "networkType": "ethereum",
  "devdoc": {
    "methods": {}
  },
  "userdoc": {
    "methods": {}
  }
}