{
  "contractName": "PasswordManager",
  "abi": [
    {
      "inputs": [],
      "payable": false,
      "stateMutability": "nonpayable",
      "type": "constructor"
    },
    {
      "anonymous": false,
      "inputs": [
        {
          "indexed": false,
          "internalType": "address",
          "name": "user",
          "type": "address"
        }
      ],
      "name": "LogPasswordChanged",
      "type": "event"
    },
    {
      "anonymous": false,
      "inputs": [
        {
          "indexed": false,
          "internalType": "address",
          "name": "user",
          "type": "address"
        }
      ],
      "name": "LogServiceAdded",
      "type": "event"
    },
    {
      "anonymous": false,
      "inputs": [
        {
          "indexed": false,
          "internalType": "address",
          "name": "user",
          "type": "address"
        }
      ],
      "name": "LogServiceRemoved",
      "type": "event"
    },
    {
      "constant": true,
      "inputs": [],
      "name": "owner",
      "outputs": [
        {
          "internalType": "address",
          "name": "",
          "type": "address"
        }
      ],
      "payable": false,
      "stateMutability": "view",
      "type": "function"
    },
    {
      "constant": false,
      "inputs": [
        {
          "internalType": "string",
          "name": "_service",
          "type": "string"
        },
        {
          "internalType": "string",
          "name": "_password",
          "type": "string"
        }
      ],
      "name": "addService",
      "outputs": [
        {
          "internalType": "bool",
          "name": "",
          "type": "bool"
        }
      ],
      "payable": false,
      "stateMutability": "nonpayable",
      "type": "function"
    },
    {
      "constant": false,
      "inputs": [
        {
          "internalType": "string",
          "name": "_service",
          "type": "string"
        },
        {
          "internalType": "string",
          "name": "_newPassword",
          "type": "string"
        }
      ],
      "name": "changePassword",
      "outputs": [
        {
          "internalType": "bool",
          "name": "",
          "type": "bool"
        }
      ],
      "payable": false,
      "stateMutability": "nonpayable",
      "type": "function"
    },
    {
      "constant": false,
      "inputs": [
        {
          "internalType": "string",
          "name": "_service",
          "type": "string"
        }
      ],
      "name": "removeService",
      "outputs": [
        {
          "internalType": "bool",
          "name": "",
          "type": "bool"
        }
      ],
      "payable": false,
      "stateMutability": "nonpayable",
      "type": "function"
    },
    {
      "constant": true,
      "inputs": [],
      "name": "returnServices",
      "outputs": [
        {
          "internalType": "string[]",
          "name": "",
          "type": "string[]"
        }
      ],
      "payable": false,
      "stateMutability": "view",
      "type": "function"
    },
    {
      "constant": true,
      "inputs": [
        {
          "internalType": "string",
          "name": "_service",
          "type": "string"
        }
      ],
      "name": "retrievePassword",
      "outputs": [
        {
          "internalType": "string",
          "name": "",
          "type": "string"
        }
      ],
      "payable": false,
      "stateMutability": "view",
      "type": "function"
    }
  ],
  "bytecode": "0x608060405234801561001057600080fd5b50336000806101000a81548173ffffffffffffffffffffffffffffffffffffffff021916908373ffffffffffffffffffffffffffffffffffffffff160217905550611123806100606000396000f3fe608060405234801561001057600080fd5b50600436106100625760003560e01c80634881e6471461006757806384a83662146100975780638b0cc5d1146100c75780638da5cb5b146100f7578063f51acaea14610115578063fb9b799514610145575b600080fd5b610081600480360361007c9190810190610bd2565b610163565b60405161008e9190610ee2565b60405180910390f35b6100b160048036036100ac9190810190610c13565b610263565b6040516100be9190610ec7565b60405180910390f35b6100e160048036036100dc9190810190610c13565b610319565b6040516100ee9190610ec7565b60405180910390f35b6100ff6104f6565b60405161010c9190610e6f565b60405180910390f35b61012f600480360361012a9190810190610bd2565b61051b565b60405161013c9190610ec7565b60405180910390f35b61014d610801565b60405161015a9190610ea5565b60405180910390f35b6060600160003373ffffffffffffffffffffffffffffffffffffffff1673ffffffffffffffffffffffffffffffffffffffff168152602001908152602001600020600201826040516101b59190610e58565b90815260200160405180910390208054600181600116156101000203166002900480601f0160208091040260200160405190810160405280929190818152602001828054600181600116156101000203166002900480156102575780601f1061022c57610100808354040283529160200191610257565b820191906000526020600020905b81548152906001019060200180831161023a57829003601f168201915b50505050509050919050565b600081600160003373ffffffffffffffffffffffffffffffffffffffff1673ffffffffffffffffffffffffffffffffffffffff168152602001908152602001600020600201846040516102b69190610e58565b908152602001604051809103902090805190602001906102d79291906109b2565b507fd95d9019783d5413cc8c6c2a7c18cd1bc6712edb666b8aed469b885dfdf8842a336040516103079190610e8a565b60405180910390a16001905092915050565b6000600160003373ffffffffffffffffffffffffffffffffffffffff1673ffffffffffffffffffffffffffffffffffffffff16815260200190815260200160002060010180549050600160003373ffffffffffffffffffffffffffffffffffffffff1673ffffffffffffffffffffffffffffffffffffffff168152602001908152602001600020600301846040516103b19190610e58565b908152602001604051809103902081905550600160003373ffffffffffffffffffffffffffffffffffffffff1673ffffffffffffffffffffffffffffffffffffffff1681526020019081526020016000206001018390806001815401808255809150509060018203906000526020600020016000909192909190915090805190602001906104409291906109b2565b505081600160003373ffffffffffffffffffffffffffffffffffffffff1673ffffffffffffffffffffffffffffffffffffffff168152602001908152602001600020600201846040516104939190610e58565b908152602001604051809103902090805190602001906104b49291906109b2565b507f8f48ddf18a6c960936a0bad125246c9a00ecfcef0aa54f2dfa32bb5883412d99336040516104e49190610e8a565b60405180910390a16001905092915050565b6000809054906101000a900473ffffffffffffffffffffffffffffffffffffffff1681565b600080600160003373ffffffffffffffffffffffffffffffffffffffff1673ffffffffffffffffffffffffffffffffffffffff16815260200190815260200160002060010180549050116105a4576040517f08c379a000000000000000000000000000000000000000000000000000000000815260040161059b90610f24565b60405180910390fd5b6000600160003373ffffffffffffffffffffffffffffffffffffffff1673ffffffffffffffffffffffffffffffffffffffff168152602001908152602001600020600301836040516105f69190610e58565b908152602001604051809103902054905060018060003373ffffffffffffffffffffffffffffffffffffffff1673ffffffffffffffffffffffffffffffffffffffff16815260200190815260200160002060010180549050111561076a57600160003373ffffffffffffffffffffffffffffffffffffffff1673ffffffffffffffffffffffffffffffffffffffff16815260200190815260200160002060010160018060003373ffffffffffffffffffffffffffffffffffffffff1673ffffffffffffffffffffffffffffffffffffffff1681526020019081526020016000206001018054905003815481106106e857fe5b90600052602060002001600160003373ffffffffffffffffffffffffffffffffffffffff1673ffffffffffffffffffffffffffffffffffffffff168152602001908152602001600020600101828154811061073f57fe5b906000526020600020019080546001816001161561010002031660029004610768929190610a32565b505b600160003373ffffffffffffffffffffffffffffffffffffffff1673ffffffffffffffffffffffffffffffffffffffff1681526020019081526020016000206001018054809190600190036107bf9190610ab9565b507f53e1b957e8ae807da30ba86e9583d845a49006b7daaf10e7a2ff6692b63cd264336040516107ef9190610e8a565b60405180910390a16001915050919050565b60606000600160003373ffffffffffffffffffffffffffffffffffffffff1673ffffffffffffffffffffffffffffffffffffffff168152602001908152602001600020600101805490501161088b576040517f08c379a000000000000000000000000000000000000000000000000000000000815260040161088290610f04565b60405180910390fd5b600160003373ffffffffffffffffffffffffffffffffffffffff1673ffffffffffffffffffffffffffffffffffffffff168152602001908152602001600020600101805480602002602001604051908101604052809291908181526020016000905b828210156109a9578382906000526020600020018054600181600116156101000203166002900480601f0160208091040260200160405190810160405280929190818152602001828054600181600116156101000203166002900480156109955780601f1061096a57610100808354040283529160200191610995565b820191906000526020600020905b81548152906001019060200180831161097857829003601f168201915b5050505050815260200190600101906108ed565b50505050905090565b828054600181600116156101000203166002900490600052602060002090601f016020900481019282601f106109f357805160ff1916838001178555610a21565b82800160010185558215610a21579182015b82811115610a20578251825591602001919060010190610a05565b5b509050610a2e9190610ae5565b5090565b828054600181600116156101000203166002900490600052602060002090601f016020900481019282601f10610a6b5780548555610aa8565b82800160010185558215610aa857600052602060002091601f016020900482015b82811115610aa7578254825591600101919060010190610a8c565b5b509050610ab59190610ae5565b5090565b815481835581811115610ae057818360005260206000209182019101610adf9190610b0a565b5b505050565b610b0791905b80821115610b03576000816000905550600101610aeb565b5090565b90565b610b3391905b80821115610b2f5760008181610b269190610b36565b50600101610b10565b5090565b90565b50805460018160011615610100020316600290046000825580601f10610b5c5750610b7b565b601f016020900490600052602060002090810190610b7a9190610ae5565b5b50565b600082601f830112610b8f57600080fd5b8135610ba2610b9d82610f71565b610f44565b91508082526020830160208301858383011115610bbe57600080fd5b610bc983828461108d565b50505092915050565b600060208284031215610be457600080fd5b600082013567ffffffffffffffff811115610bfe57600080fd5b610c0a84828501610b7e565b91505092915050565b60008060408385031215610c2657600080fd5b600083013567ffffffffffffffff811115610c4057600080fd5b610c4c85828601610b7e565b925050602083013567ffffffffffffffff811115610c6957600080fd5b610c7585828601610b7e565b9150509250929050565b6000610c8b8383610d9f565b905092915050565b610c9c81611057565b82525050565b610cab81611019565b82525050565b6000610cbc82610fad565b610cc68185610fdb565b935083602082028501610cd885610f9d565b8060005b85811015610d145784840389528151610cf58582610c7f565b9450610d0083610fce565b925060208a01995050600181019050610cdc565b50829750879550505050505092915050565b610d2f8161102b565b82525050565b6000610d4082610fc3565b610d4a8185610ffd565b9350610d5a81856020860161109c565b610d63816110cf565b840191505092915050565b6000610d7982610fc3565b610d83818561100e565b9350610d9381856020860161109c565b80840191505092915050565b6000610daa82610fb8565b610db48185610fec565b9350610dc481856020860161109c565b610dcd816110cf565b840191505092915050565b6000610de5600b83610ffd565b91507f4e6f2073657276696365730000000000000000000000000000000000000000006000830152602082019050919050565b6000610e25600e83610ffd565b91507f417272617920697320656d7074790000000000000000000000000000000000006000830152602082019050919050565b6000610e648284610d6e565b915081905092915050565b6000602082019050610e846000830184610ca2565b92915050565b6000602082019050610e9f6000830184610c93565b92915050565b60006020820190508181036000830152610ebf8184610cb1565b905092915050565b6000602082019050610edc6000830184610d26565b92915050565b60006020820190508181036000830152610efc8184610d35565b905092915050565b60006020820190508181036000830152610f1d81610dd8565b9050919050565b60006020820190508181036000830152610f3d81610e18565b9050919050565b6000604051905081810181811067ffffffffffffffff82111715610f6757600080fd5b8060405250919050565b600067ffffffffffffffff821115610f8857600080fd5b601f19601f8301169050602081019050919050565b6000819050602082019050919050565b600081519050919050565b600081519050919050565b600081519050919050565b6000602082019050919050565b600082825260208201905092915050565b600082825260208201905092915050565b600082825260208201905092915050565b600081905092915050565b600061102482611037565b9050919050565b60008115159050919050565b600073ffffffffffffffffffffffffffffffffffffffff82169050919050565b600061106282611069565b9050919050565b60006110748261107b565b9050919050565b600061108682611037565b9050919050565b82818337600083830152505050565b60005b838110156110ba57808201518184015260208101905061109f565b838111156110c9576000848401525b50505050565b6000601f19601f830116905091905056fea365627a7a72315820592c7f3d8b5674cbe8b960dfab36f57eb5fddaabb00f0880731ee16c8eec5a2b6c6578706572696d656e74616cf564736f6c63430005100040",
  "source": "pragma solidity >=0.4.21 <0.7.0;\npragma experimental ABIEncoderV2;\n\ncontract PasswordManager {\n\n    // Owner of the contract\n    address public owner;\n\n    // Map users by address to their object\n    mapping(address => User) internal users;\n\n    // Create a struct to represent a user and their passwords\n    struct User {\n        string masterPassword;\n        string[] serviceArray;\n        mapping(string => string) passwords;\n        mapping(string => uint) serviceToIndex;\n    }\n\n    // Events\n    event LogServiceAdded(address user);\n    event LogPasswordChanged(address user);\n    event LogServiceRemoved(address user);\n\n    // Functions\n    constructor() public {\n        owner = msg.sender;\n    }\n\n    /* Add a service with a respective password and store it in the User struct*/\n    function addService(string memory _service, string memory _password) public returns(bool) {\n        users[msg.sender].serviceToIndex[_service] = users[msg.sender].serviceArray.length;\n        users[msg.sender].serviceArray.push(_service);\n        users[msg.sender].passwords[_service] = _password;\n        emit LogServiceAdded(msg.sender);\n        return true;\n    }\n\n    /* Change password for an existing service by supplying a new password */\n    function changePassword(string memory _service, string memory _newPassword) public returns(bool) {\n        users[msg.sender].passwords[_service] = _newPassword;\n        emit LogPasswordChanged(msg.sender);\n        return true;\n    }\n\n    /* Remove a service from the list of the sender's services */\n    function removeService(string memory _service) public returns(bool) {\n        require(users[msg.sender].serviceArray.length > 0, \"Array is empty\");\n        uint index = users[msg.sender].serviceToIndex[_service];\n        if(users[msg.sender].serviceArray.length > 1) {\n            users[msg.sender].serviceArray[index] =  users[msg.sender].serviceArray[users[msg.sender].serviceArray.length - 1];\n        }\n        users[msg.sender].serviceArray.length--;\n        emit LogServiceRemoved(msg.sender);\n        return true;\n    }\n\n    /* Return all services based on the current sender */\n    function returnServices() public view returns(string[] memory) {\n        require(users[msg.sender].serviceArray.length > 0, \"No services\");\n        return users[msg.sender].serviceArray;\n    }\n\n    /* Retrieve password for the respective service provided */\n    function retrievePassword(string memory _service) public view returns(string memory) {\n        return users[msg.sender].passwords[_service];\n    }\n}\n",
  "sourcePath": "/Users/ianbrighton/Documents/Blockchain/github-projects/decentralized-password-manager/blockchain/contracts/PasswordManager.sol",
  "compiler": {
    "name": "solc",
    "version": "0.5.16+commit.9c3226ce.Emscripten.clang"
  },
  "schemaVersion": "3.0.23",
  "updatedAt": "2020-08-26T00:06:13.523Z",
  "networkType": "ethereum",
  "devdoc": {
    "methods": {}
  },
  "userdoc": {
    "methods": {}
  }
}